:100000000C94DA000C9402010C9402010C9402018D
:100010000C9402010C9402010C9402010C94020154
:100020000C9402010C9402010C9402010C94020144
:100030000C9402010C9402010C9402010C94020134
:100040000C94F7090C9402010C94C5090C949F09B7
:100050000C9402010C9402010C9402010C94020114
:100060000C94410A0C94020100407A10F35A00A04B
:10007000724E18090010A5D4E80000E87648170071
:1000800000E40B54020000CA9A3B000000E1F505B1
:10009000000080969800000040420F000000A086FB
:1000A00001000000102700000000E803000000002D
:1000B0006400000000000A000000000001000000D1
:1000C00000002C76D888DC674F0823DFC1DFAE59EB
:1000D000E1B1B796E5E3E453C63AE651997696E87E
:1000E000E6C28426EB898C9B62ED407C6FFCEFBC02
:1000F0009C9F40F2BAA56FA5F490055A2AF75C932D
:100100006B6CF9676DC11BFCE0E40D47FEF520E662
:10011000B500D0ED902E0300943577050080841E45
:10012000080000204E0A000000C80C333333330FA0
:10013000986E12831141EF8D2114893BE65516CF3D
:10014000FEE6DB18D1844B381BF77C1D901DA4BB49
:10015000E424203284725E228100C9F124ECA1E5FE
:100160003D27000000080002010000030407000012
:1001700000000000000000000000250028002B0007
:1001800000000000240027002A00040404040404E2
:100190000404020202020202030303030303010236
:1001A0000408102040800102040810200102040805
:1001B0001020600B11241FBECFEFD8E0DEBFCDBFF3
:1001C00023E0A0EDB1E001C01D92A33AB207E1F730
:1001D00011E0A0E0B1E0ECE3FFE202C005900D9277
:1001E000A03DB107D9F710E0CAEDD0E004C02197D7
:1001F000FE010E949515C93DD107C9F70E94B70BB2
:100200000C949C170C94000090E0FC01E256FE4F09
:10021000249186579E4FFC018491882399F090E0A9
:10022000880F991FFC01E058FE4FA591B491FC0185
:10023000EA58FE4F859194918FB7F894EC91E22B98
:10024000EC938FBF08958091210290912202891B27
:10025000990B089508950895AF92BF92CF92DF92BF
:10026000EF92FF920F931F93CF93DF936C017B016B
:100270008B01040F151FEB015E01AE18BF08C017FC
:10028000D10759F06991D601ED91FC910190F0816F
:10029000E02DC6010995892B79F7C501DF91CF9132
:1002A0001F910F91FF90EF90DF90CF90BF90AF9094
:1002B0000895FC01538D448D252F30E0842F90E06C
:1002C000821B930B541710F0CF9608950197089551
:1002D000FC01918D828D981761F0A28DAE0FBF2F1A
:1002E000B11D5D968C91928D9F5F9F73928F90E070
:1002F00008958FEF9FEF0895FC01918D828D9817DF
:1003000031F0828DE80FF11D858D90E008958FEF1B
:100310009FEF0895FC01918D228D892F90E0805CE4
:100320009F4F821B91098F739927089583E992E06B
:100330000E948A0121E0892B09F420E0822F089590
:1003400080E090E0892B29F00E94960181110C94A5
:1003500000000895FC01A48DA80FB92FB11DA35A68
:10036000BF4F2C91848D90E001968F739927848FD5
:10037000A689B7892C93A089B1898C9183708064F8
:100380008C93938D848D981306C00288F389E02D99
:1003900080818F7D80830895EF92FF920F931F934A
:1003A000CF93DF93EC0181E0888F9B8D8C8D981328
:1003B0001AC0E889F989808185FF15C09FB7F89434
:1003C000EE89FF896083E889F98980818370806480
:1003D00080839FBF81E090E0DF91CF911F910F91CB
:1003E000FF90EF900895F62E0B8D10E00F5F1F4FDA
:1003F0000F731127E02E8C8D8E110CC00FB607FCE9
:10040000FACFE889F989808185FFF5CFCE010E9476
:10041000AA01F1CFEB8DEC0FFD2FF11DE35AFF4F39
:10042000F0829FB7F8940B8FEA89FB898081806204
:10043000CFCF682F83E992E00C94CC01CF93DF9368
:10044000EC01888D8823B9F0AA89BB89E889F989EC
:100450008C9185FD03C0808186FD0DC00FB607FC21
:10046000F7CF8C9185FFF2CF808185FFEDCFCE0154
:100470000E94AA01E9CFDF91CF91089590E0FC019D
:10048000EE59FE4F2491FC01E256FE4F3491FC01DF
:10049000E657FE4FE491EE23C9F0222339F02330D2
:1004A00001F1A8F4213019F1223029F1F0E0EE0F2A
:1004B000FF1FEA58FE4FA591B4918FB7F894EC91C5
:1004C000611126C030953E233C938FBF089527309D
:1004D000A9F02830C9F0243049F7809180008F7D41
:1004E00003C0809180008F7780938000DFCF84B538
:1004F0008F7784BDDBCF84B58F7DFBCF8091B0003B
:100500008F778093B000D2CF8091B0008F7DF9CFEC
:100510003E2BDACF3FB7F8948091190290911A02DE
:10052000A0911B02B0911C0226B5A89B05C02F3FCD
:1005300019F00196A11DB11D3FBFBA2FA92F982F09
:100540008827BC01CD01620F711D811D911D42E004
:10055000660F771F881F991F4A95D1F708958F92CC
:100560009F92AF92BF92CF92DF92EF92FF924B0198
:100570005C010E948A026B017C010E948A026C1954
:100580007D098E099F09683E734081059105A8F396
:1005900021E0821A9108A108B10888EEC80E83E014
:1005A000D81EE11CF11C81149104A104B10429F7A7
:1005B000FF90EF90DF90CF90BF90AF909F908F9083
:1005C00008952091F101260F3327331F2132310581
:1005D000ECF420916902FC0190E080E0243069F0A5
:1005E00082E00895A091F1012191AC014F525E4F3C
:1005F000A40FB52FB11D2C930196861798F3809107
:10060000F101680F6093F10180E0089581E00895A1
:100610001092690281E0809368021092430261E0C7
:1006200082E10E943E0261E083E10E943E02E9EB2A
:10063000F0E080818E7F808380818D7F808388E45D
:100640008093B80085E48093BC000895CF93DF9336
:1006500091E09093D0018823B9F0C091B800D09177
:10066000BA008091BC008A7B8093BC0060E082E18C
:100670000E943E0260E083E10E943E020E94080365
:10068000D093BA00C093B800DF91CF9108958F92B4
:100690009F92AF92BF92CF92DF92EF92FF920F9311
:1006A0001F93CF93DF93D0919202D13208F0D7C03D
:1006B000182FC09191020E948A026B017C018091E7
:1006C000690281116BC082E0809369021093680215
:1006D0008FEF8093670210926602D0936502A1E7C4
:1006E000B2E0E5E4F2E080E0D81391C01092440259
:1006F00080914402CC0FC82BC093440280914302E6
:10070000813009F088C0109243020E948A026B0176
:100710007C01809144028093BB0080916B02909198
:100720006C02A0916D02B0916E02892B8A2B8B2BEB
:10073000A1F00E948A0200916B0210916C0220913C
:100740006D0230916E026C197D098E099F090617A2
:1007500017072807390708F442C08091BC0083FDC1
:10076000D8CF85EC8093BC000E948A026B017C018B
:1007700080916902823009F450C0809167028F3FF6
:1007800009F46FC080916702803209F46CC08091D7
:100790006702803309F469C084E026C080916B024F
:1007A00090916C02A0916D02B0916E02892B8A2B00
:1007B0008B2B09F484CF0E948A0280906B02909068
:1007C0006C02A0906D02B0906E026C197D098E09CA
:1007D0009F0986169706A806B90608F070CF809183
:1007E0006A020E94260385E0109270021092920223
:1007F00010926F02DF91CF911F910F91FF90EF90B8
:10080000DF90CF90BF90AF909F908F9008959D9173
:1008100091938F5F69CF85EEA5CF80916B02909108
:100820006C02A0916D02B0916E02892B8A2B8B2BEA
:1008300009F49ECF0E948A0200916B0210916C0213
:1008400020916D0230916E026C197D098E099F090D
:10085000061717072807390708F08ACFC0CF81E0AD
:10086000C3CF80E0C1CF82E0BFCF83E0BDCF08958A
:10087000E091220280912102E81730F4F0E0ED5D72
:10088000FD4F808190E008958FEF9FEF0895909144
:100890002202809121022FEF3FEF981748F4E92FB1
:1008A000F0E0ED5DFD4F208130E09F5F90932202EC
:1008B000C9010895CF92DF92EF92FF920F931F9399
:1008C000CF93DF937C01CB018A0120916F02222319
:1008D00089F0EB016B01C40ED51ECC15DD0569F066
:1008E0006991D701ED91FC910190F081E02DC70154
:1008F0000995F3CF642F0E94E102C801DF91CF91E7
:100900001F910F91FF90EF90DF90CF90089521E01D
:1009100020936F0227E720939102109270021092A9
:10092000920242E050E0BC0180E393E00E945A044E
:1009300081E00E944703982F8093860381E0911104
:1009400080E00895CF93DF931F92CDB7DEB7698320
:1009500020916F022223F9F020919202203258F068
:1009600021E030E0FC013383228390E080E00F90AF
:10097000DF91CF91089580917002E82FF0E0EF5859
:10098000FD4F998190838F5F8093700280939202D4
:1009900081E090E0ECCF61E0CE0101960E94E1029F
:1009A000F7CF089590E080E008954F925F926F92A4
:1009B0007F928F929F92AF92BF92EF92FF920F938E
:1009C0001F93CF93DF937C01D62F81E080936F023A
:1009D00087E7809391021092700210929202F701C1
:1009E000608180E393E00E94A20481E00E944703BB
:1009F000809386038111E1C00D2F0D2E000C110B89
:100A00000E948A024B015C0180916902811165C0DC
:100A1000CD2F81E080936902809368029FEF9093CD
:100A20006702109266029D0F9093650280934402C4
:100A3000809144028E6E8093440280914302813003
:100A400009F097C0109243020E948A024B015C0198
:100A5000809144028093BB0080916B0290916C0264
:100A6000A0916D02B0916E02892B8A2B8B2BA1F085
:100A70000E948A0240906B0250906C0260906D025E
:100A800070906E02681979098A099B094616570603
:100A90006806790608F442C08091BC0083FDD8CF77
:100AA00085EC8093BC000E948A024B015C0180911E
:100AB0006902813009F45FC0809166028D1710F4DD
:100AC000C0916602E5E4F2E0A3E2B2E080E08C17B8
:100AD00051F191919D938F5FFACF80916B0290912C
:100AE0006C02A0916D02B0916E02892B8A2B8B2B28
:100AF00009F48ACF0E948A0240906B0250906C02E7
:100B000060906D0270906E02681979098A099B09DC
:100B1000461657066806790608F076CF80916A0275
:100B20000E942603C0E010922202C09321028C2F63
:100B300090E008171907E9F7CE2D870180E393E0CD
:100B40000E944704F80181938F018E2F8C1B8D1713
:100B5000ACF381E0DF91CF911F910F91FF90EF9067
:100B6000BF90AF909F908F907F906F905F904F90CD
:100B7000089585EE96CF80916B0290916C02A091C2
:100B80006D02B0916E02892B8A2B8B2B09F48FCFCB
:100B90000E948A0240906B0250906C0260906D023D
:100BA00070906E02681979098A099B0946165706E2
:100BB0006806790608F07BCFB1CF80E0CBCF0F93EA
:100BC0001F93CF93DF9300D0CDB7DEB78B0189831E
:100BD00062E0CE0101960E94D504882381F08981CC
:100BE0009A81982789279827F8019183808381E04B
:100BF0000F900F90DF91CF911F910F910895F80101
:100C000011821082F5CF0F931F93CF93DF9300D003
:100C1000CDB7DEB78B01898362E0CE0101960E94D9
:100C2000D504882381F089819A819827892798277C
:100C3000F8019183808381E00F900F90DF91CF9135
:100C40001F910F910895F80111821082F5CFCF9373
:100C5000DF93EC0160E08E810E943E0261E08E81B4
:100C60000E943E0260E08E810E943E028BE891E08D
:100C70000197F1F7DF91CF910895CF92DF92EF9234
:100C8000FF920F931F93CF93DF936C017C0187E05A
:100C9000E80EF11CD0E0C0E0062F10E0B8010C2EE9
:100CA00002C0759567950A94E2F76170F70181912A
:100CB0007F010E943E022196C430D10579F7C6011A
:100CC000DF91CF911F910F91FF90EF90DF90CF9028
:100CD0000C942706CF92DF92EF92FF920F931F930F
:100CE000CF93DF93EC01F62E642F8C810E943E029D
:100CF0008D818F3F19F060E00E943E020F2D10E0C1
:100D00008F8584FF25C06E0187E0C80ED11CF12CB1
:100D1000E12CB8010E2C02C0759567950A94E2F794
:100D20006170F60181916F010E943E02FFEFEF1AA0
:100D3000FF0A88E0E816F10461F7CE01DF91CF9158
:100D40001F910F91FF90EF90DF90CF900C942706AA
:100D5000B80184E0759567958A95E1F7CE010E9408
:100D60003D066F2DCE01DF91CF911F910F91FF9026
:100D7000EF90DF90CF900C943D0640E0682F87E81D
:100D800093E00C946A06CF93DF93613029F0909141
:100D9000960398609093960360939A0310929B0336
:100DA00090E490939C0380939D03805C80939E03CA
:100DB00080918B030E94040180918C038F3F11F07E
:100DC0000E94040180918D030E940401C7E8D3E0D2
:100DD0009E01275833408091960384FD0AC084E029
:100DE00090E02196281739073CF48E810E94040177
:100DF000EFCF88E090E0F5CF8BE39DE00197F1F72E
:100E000060E080918B030E943E0260E080918D0340
:100E10000E943E0280918C038F3F19F060E00E9497
:100E20003E028091960384FD39C063E087E893E039
:100E30000E943D06CBE4D6E4CE010197F1F763E0D2
:100E400087E893E00E943D062197F1F763E087E889
:100E500093E00E943D0683E592E00197F1F762E09E
:100E600087E893E00E943D068091960380620E948D
:100E7000BD0684E0809397038CE00E94BD0681E06C
:100E80000E94BD068BE39FE10197F1F782E080931A
:100E9000980386E0DF91CF910C94BD0680620E949A
:100EA000BD068BE496E40197F1F78091960380628A
:100EB0000E94BD0683E592E00197F1F780919603C9
:100EC00080620E94BD06D0CF90919A03891710F0DE
:100ED0008FEF890FE82FF0E0E957FC4F8489806895
:100EE0000C94BD0641E00E946A0681E090E00895FE
:100EF0000F931F93CF93DF934115510541F0FC01F0
:100F0000048115810115110539F4FB011082DF916F
:100F1000CF911F910F9108954150510940175107EA
:100F200008F48A01EB01FC0160817181A801CE0106
:100F30000E948D17C00FD11F1882E9CFFB010190CD
:100F40000020E9F73197AF01461B570BDC01ED910B
:100F5000FC910280F381E02D099466E371E083E95E
:100F600092E00C949E07BC0187E893E00C949E07E6
:100F70008F929F92AF92BF920F931F93CF93DF9365
:100F8000CDB7DEB7A1970FB6F894DEBF0FBECDBFC9
:100F900019A2423008F44AE08E010F5D1F4F842EE3
:100FA000912CB12CA12CA50194010E947315E62F60
:100FB000B901CA01EA3004F5E05DD801EE938D0174
:100FC000232B242B252B79F790E080E0109729F034
:100FD000BD0187E893E00E949E07A1960FB6F894A2
:100FE000DEBF0FBECDBFDF91CF911F910F91BF909C
:100FF000AF909F908F900895E95CDFCF4F925F9202
:101000006F927F928F929F92AF92BF92CF92DF9218
:10101000EF92FF921F93CF93DF936B017C01AC01A2
:101020009B010E946E1569E371E0811126C04601A3
:101030005701E894B7F82FEF3FEF4FE75FE7C5019F
:10104000B4010E946E1581110CC02FEF3FEF4FE7E6
:101050005FE7C501B4010E9400136DE371E018164B
:1010600064F02FEF3FEF4FE75FE4C701B6010E9446
:1010700069151816ACF461E471E087E893E0DF913C
:10108000CF911F91FF90EF90DF90CF90BF90AF90E6
:101090009F908F907F906F905F904F900C949E07E1
:1010A0002FEF3FEF4FE75FECC701B6010E9400133F
:1010B00087FDE1CF20E030E0A901C701B6010E9421
:1010C0000013D0E0C0E087FF0CC041E06DE287E88C
:1010D00093E00E946A06F7FAF094F7F8F094C1E002
:1010E000D0E01AE060E070E080E09FE320E030E0D4
:1010F00040E251E40E94C8141150C1F7A7019601C3
:101100000E945C144B015C010E943A156B017C014A
:101110000E9405139B01AC01C501B4010E945B1440
:101120004B015C014AE0C701B6010E94B8077C018F
:10113000219641E06EE287E893E00E946A06EC0E99
:10114000FD1ECBE0C15019F120E030E040E251E457
:10115000C501B4010E9466132B013C010E943A159F
:101160004B01B12CA12C4AE0C501B4010E94B80783
:10117000E80EF91EC501B4010E9405139B01AC01E4
:10118000C301B2010E945B144B015C01DBCFC701BC
:10119000DF91CF911F91FF90EF90DF90CF90BF90A4
:1011A000AF909F908F907F906F905F904F90089539
:1011B0000F931F93CF93DF93EC0188819981009760
:1011C00059F02A813B812617370730F081E0DF9103
:1011D000CF911F910F9108958B016F5F7F4F0E94F8
:1011E000C016009759F0998388831B830A832C814A
:1011F0003D81232B59F7FC011082E8CF80E0E7CF37
:10120000CF93DF93EC0188819981009711F00E94C0
:101210003716198218821D821C821B821A82DF9166
:10122000CF910895CF92DF92EF92FF920F931F9389
:10123000CF93DF93CDB7DEB7A1970FB6F894DEBF9B
:101240000FBECDBF7C01CB01BA01F7011182108224
:1012500013821282158214828E010F5F1F4F22E0CB
:1012600044E00E9476106C01009771F0FC0101903F
:101270000020E9F731978F01081B190BB801C7014E
:101280000E94D808811112C0C7010E940009A196CE
:101290000FB6F894DEBF0FBECDBFDF91CF911F9187
:1012A0000F91FF90EF90DF90CF900895F701158395
:1012B0000483B601808191810E948617E8CFFC01EA
:1012C00080819181009711F00C943716089585ED77
:1012D0008093BC0080916B0290916C02A0916D0292
:1012E000B0916E020796A11DB11D23E0B695A7959A
:1012F000979587952A95D1F72091BC0024FD03C0CE
:1013000010926902089540916B0250916C026091B5
:101310006D0270916E02452B462B472B69F30097A7
:10132000A105B10541F025E32A95F1F700000197E9
:10133000A109B109E1CF80916A020C9426031F92A2
:101340000F920FB60F9211242F933F934F935F93F9
:101350006F937F938F939F93AF93BF93EF93FF937D
:1013600083E992E00E94AA01FF91EF91BF91AF91B2
:101370009F918F917F916F915F914F913F912F91AD
:101380000F900FBE0F901F9018951F920F920FB6DF
:101390000F9211242F938F939F93EF93FF93E091DC
:1013A000A302F091A4028081E091A902F091AA0227
:1013B00082FD1BC090818091AC028F5F8F73209162
:1013C000AD02821741F0E091AC02F0E0ED56FD4F26
:1013D000958F8093AC02FF91EF919F918F912F9108
:1013E0000F900FBE0F901F9018958081F4CF1F9221
:1013F0000F920FB60F9211242F933F938F939F93C9
:10140000AF93BF938091150290911602A09117029D
:10141000B09118023091140223E0230F2D3758F5B4
:101420000196A11DB11D2093140280931502909383
:101430001602A0931702B09318028091190290919E
:101440001A02A0911B02B0911C020196A11DB11DB0
:101450008093190290931A02A0931B02B0931C026E
:10146000BF91AF919F918F913F912F910F900FBEA0
:101470000F901F90189526E8230F0296A11DB11D0D
:10148000D2CF1F920F920FB60F9211242F933F933A
:101490004F935F936F937F938F939F93AF93BF937C
:1014A000EF93FF938091B900887F803609F44AC09A
:1014B000F0F5883209F4A7C018F5803109F49BC013
:1014C000B8F4882309F4F9C0883009F494C0FF9176
:1014D000EF91BF91AF919F918F917F916F915F91AC
:1014E0004F913F912F910F900FBE0F901F90189525
:1014F000883109F488C0803251F78093670214C0A4
:10150000803409F49DC040F48033B9F38833F9F690
:101510008093670285ECB0C0803509F485C08835BA
:1015200009F496C0883499F60E946709D0CF8839AB
:1015300009F48CC038F5883729F050F4883611F05A
:10154000803729F683E0809369021092130257C016
:10155000883809F47BC0803919F0803809F0B7CF9A
:1015600080911302803208F071C0E091130281E093
:101570008E0F809313028091BB00F0E0ED50FE4F80
:1015800080833DC0803B39F0E0F4803A09F479C0B3
:10159000883A09F09CCF84E0809369021092F201AE
:1015A0001092F101E0911F02F091200209958091C3
:1015B000F10181110FC081E08093F1011092D101FE
:1015C00009C0803C09F4A6CF883C09F4A3CF883B2E
:1015D00009F07DCFE091F20181E08E0F8093F2015E
:1015E000F0E0EF52FE4F80818093BB009091F201BA
:1015F0008091F10129C0809144028093BB0085EC69
:101600008093BC0064CF9091660280916502981728
:1016100058F5E091660281E08E0F80936602F0E05B
:10162000EB5BFD4F8081E9CFE091660281E08E0F98
:10163000809366028091BB00F0E0EB5BFD4F8083FE
:1016400090916602809165029817C8F285E8D8CF1C
:10165000E091660281E08E0F809366028091BB006C
:10166000F0E0EB5BFD4F80838091680281115CCFDD
:1016700081E08093430284EA8093BC001092690267
:1016800026CF85EC8093BC001092690280911302F2
:10169000803230F4E0911302F0E0ED50FE4F108202
:1016A0006091130270E0E0911D02F0911E0283EF41
:1016B00091E00995109213020ACF1092670234CF7D
:1016C000E3E9F2E01382128288EE93E0A0E0B0E05A
:1016D00084839583A683B7832AE031E03183208316
:1016E00025EC30E03587248724EC30E037872687E7
:1016F00020EC30E0318B208B21EC30E0338B228BDF
:1017000022EC30E0358B248B26EC30E0378B268BB7
:10171000118E128E138E148EE0E3F3E01382128288
:1017200084839583A683B7838CE191E09183808342
:10173000E7E8F3E0138212828EE291E091838083E6
:101740008DE084838FEF85838CE086838BE08783B5
:101750008AE0808789E0818788E082871386148603
:1017600015861686178661E080E10C94C306CF9338
:10177000DF93CDB7DEB7E0970FB6F894DEBF0FBEAC
:10178000CDBF789484B5826084BD84B5816084BD0A
:1017900085B5826085BD85B5816085BD80916E000F
:1017A000816080936E001092810080918100826040
:1017B000809381008091810081608093810080917D
:1017C00080008160809380008091B100846080936C
:1017D000B1008091B00081608093B00080917A0068
:1017E000846080937A0080917A00826080937A008E
:1017F00080917A00816080937A0080917A0080687D
:1018000080937A001092C100E091A302F091A402AB
:1018100082E08083E0919F02F091A0021082E0912B
:10182000A102F091A2028FEC80831092AB02E091B2
:10183000A702F091A80286E08083E091A502F091D2
:10184000A602808180618083E091A502F091A602CA
:10185000808188608083E091A502F091A60280815A
:1018600080688083E091A502F091A60280818F7D3F
:10187000808364E084E10E94C30680E00E946407E4
:1018800085E491E00E94B30781E00E94640785E54A
:1018900091E00E94B30782E00E94640789E691E02C
:1018A0000E94B30783E00E9464078AE791E00E94E8
:1018B000B30760ED77E080E090E00E94AF0281E046
:1018C0000E94BD068BE39FE10197F1F7109222027F
:1018D0001092210210927002109292020E9408034C
:1018E0008AE291E09093200280931F028BE291E0C4
:1018F00090931E0280931D026CE373E08AEA0E94BB
:101900000306882309F46CC16EE373E08CEA0E943D
:101910000306882309F464C160E473E08EEA0E9440
:101920000306882309F45CC16CE473E080EB0E9439
:10193000DF05882309F454C16EE473E082EB0E9452
:10194000DF05882309F44CC160E573E084EB0E9455
:10195000DF05882309F444C162E473E086EB0E944A
:101960000306882309F43CC164E473E088EB0E9419
:101970000306882309F434C166E473E08AEB0E940D
:101980000306882309F42CC168E473E08CEB0E9401
:101990000306882309F424C16AE473E08EEB0E94F5
:1019A0000306882309F41CC1609140037091410330
:1019B000072E000C880B990B0E94071320E030E0E3
:1019C00040EA5BE30E9466132B013C0160914C03EB
:1019D00070914D0390E080E00E9405132FE632E104
:1019E00043E053E30E9466136B017C016091420364
:1019F00070914303072E000C880B990B0E9407136C
:101A000020E030E048EC57E30E9466134B015C0194
:101A100060914E0370914F0390E080E00E940513A7
:101A20002DEC3CEC4CE454E30E94661360935203AB
:101A30007093530380935403909355036091500324
:101A40007091510390E080E00E940513609356036B
:101A50007093570380935803909359036091480300
:101A600070914903072E000C880B990B0E940713F5
:101A70002AE037ED43EA5DE30E94661360935A0360
:101A800070935B0380935C0390935D0360914A03C2
:101A900070914B03072E000C880B990B0E940713C3
:101AA00020E030E040E253E40E94C81460935E03FB
:101AB00070935F03809360039093610360913C0394
:101AC00070913D03072E000C880B990B0E940713A1
:101AD0006093620370936303809364039093650340
:101AE00060913E0370913F03072E000C880B990B09
:101AF0000E94071320E030E040EA5CE30E94661396
:101B000060936603709367038093680390936903FF
:101B10006091440370914503072E000C880B990BCC
:101B20000E94071320E030E048E45AE30E94661365
:101B300060936A0370936B0380936C0390936D03BF
:101B400020E030E040E057E4C701B6010E94661390
:101B500060936E0370936F0380937003909371038F
:101B6000A7019601C301B2010E946613609372033C
:101B7000709373038093740390937503A50194018C
:101B8000C701B6010E9466136093760370937703D2
:101B900080937803909379038CEE91E5A7E1B0E40C
:101BA00080937A0390937B03A0937C03B0937D038F
:101BB00080E394E3AEE7BFE380937E0390937F03DB
:101BC000A0938003B093810380E097E5A4E9B6E396
:101BD0008093820390938303A0938403B09385033F
:101BE0008E010D5E1F4FCE0101961C01F80188E0A9
:101BF00011928A95E9F780E00E9464078EE891E0EF
:101C00000E94B30769E971E083E992E00E949E07B0
:101C100018A61FA21AA619A61CA61BA64AE0B10167
:101C200088E291E00E949410F10101900020E9F710
:101C300031977F01E218F308B701CE0187960E9421
:101C4000D80881111FC0CE0187960E9400094BA5BC
:101C50005CA54F5F5F4FB801CE0187960E94780761
:101C600078012BA53CA5C701801B910B8217930718
:101C700088F4F70181917F01082E000C990B0E94D6
:101C80001902EFCFFCA6EBA6B1018FA198A50E9487
:101C90008617DDCF0E94AD074AE068E271E080E080
:101CA00090E00E94B8078BE991E00E94B307F4EF3F
:101CB000F9838EE28A83C1010E948704882309F494
:101CC00004C265E070E080E090E00E94AF0296EF11
:101CD000998362E0C1010E94D504882309F4EFC111
:101CE000698170E090E080E00E94071320E030E01E
:101CF00040E853E40E9466136B017C016A8170E046
:101D000090E080E00E9407139B01AC01C701B6017F
:101D10000E945C1420915603309157034091580360
:101D2000509159030E945B14209152033091530348
:101D300040915403509155030E9466136B017C013E
:101D400020915E0330915F034091600350916103E5
:101D50000E945C149B01AC0160915A0370915B037B
:101D600080915C0390915D030E94C814A7019601C5
:101D70000E945C144B015C016EE971E083E992E022
:101D80000E949E07B501A401CE0181960E9412090E
:101D90004DA15EA1B801CE0181960E94780778011D
:101DA0002DA13EA1C701801B910B8217930748F418
:101DB000F70181917F01082E000C990B0E941902F6
:101DC000EFCF0E94AD0781E00E94640780EA91E0B6
:101DD0000E94B307C501B4010E94FE078EEA91E09C
:101DE0000E94B307F4EFF983FA83C1010E948704CC
:101DF000882309F460C16AE170E080E090E00E940D
:101E0000AF0286EF898363E0C1010E94D504882375
:101E100009F451C120E030E048EC51E4C501B401BF
:101E20000E945B146B017C01AC019B010E94661354
:101E30004B015C01698170E090E080E00E94071333
:101E400020E030E040E853E40E9466132B013C019F
:101E50006A8170E090E080E00E9407139B01AC0172
:101E6000C301B2010E945C142B013C016B8170E044
:101E700090E080E00E94071320E030E040E85BE360
:101E80000E9466139B01AC01C301B2010E945C1465
:101E90006DA77EA78FA798AB20916A0330916B0343
:101EA00040916C0350916D03C501B4010E9466130B
:101EB0002B013C0120916603309167034091680338
:101EC00050916903C701B6010E9466139B01AC01E2
:101ED000C301B2010E945C1420916203309163033C
:101EE00040916403509165030E945C149B01AC0116
:101EF0006DA57EA58FA598A90E945B142B013C01BE
:101F000020917603309177034091780350917903C3
:101F1000C501B4010E9466134B015C01209172035C
:101F2000309173034091740350917503C701B6015A
:101F30000E9466139B01AC01C501B4010E945C14B0
:101F400020916E0330916F034091700350917103A3
:101F50000E945C149B01AC01C301B2010E94C81431
:101F60006B017C01AC019B010E94661320918203EE
:101F70003091830340918403509185030E9466133E
:101F80004B015C0120917E0330917F0340918003DF
:101F900050918103C701B6010E9466139B01AC01F9
:101FA000C501B4010E945C1420917A0330917B0337
:101FB00040917C0350917D030E945C144B015C01B5
:101FC00062EB71E083E992E00E949E07B501A401F3
:101FD000CE014B960E9412094F8D58A1B801CE0137
:101FE0004B960E94780778012F8D38A1C701801B7E
:101FF000910B8217930748F4F70181917F01082E16
:10200000000C990B0E941902EFCF0E94AD0782E0ED
:102010000E94640784EB91E00E94B307C501B401FC
:102020000E94FE078EEB91E00E94B3072BED34E295
:1020300047E75FE3C501B4010E94C8144B015C018E
:1020400062EC71E083E992E00E949E07B501A40171
:10205000C1010E9412094D815E81B801C1010E9437
:10206000780778012D813E81C701801B910B821773
:10207000930748F4F70181917F01082E000C990B1A
:102080000E941902EFCF0E94AD0783E00E9464070F
:1020900084EC91E00E94B307C501B4010E94FE07E1
:1020A0008FEB91E00E94B307C1010E945F09CE014E
:1020B0004B960E945F09CE0181960E945F0968EBF2
:1020C0007BE080E090E00E94AF02CE0187960E9404
:1020D0005F0980E090E0892B09F488CD0E94960189
:1020E000882309F483CD0E94000080CDEF920F93E6
:1020F0001F93CF93DF93E80134E047FD34E1042ED2
:10210000000C550B57FF03C0519541955109E32E23
:10211000022F242FAE010E94B910CE01DF91CF9182
:102120001F910F91EF900895BB274A3031F4992306
:1021300022F4BDE2909581959F4F0C94A010BB278F
:10214000FB015527AA27880F991FAA1FA41710F073
:10215000A41B83955051B9F7A05DAA3308F0A95D7F
:10216000A193009779F7B111B1931192CB010C941F
:10217000F012A9E0B0E0EFEBF0E10C942A146A0150
:10218000F22EB02E102FFBE3AF2EA01608F41BE3A7
:102190001F5F012F27E0AE014F5F5F4F0E941812B3
:1021A000BC018981982F9970913009F43FC09BE25E
:1021B000E1FC04C09E2D9170E0FC3AC05E2D507190
:1021C000E82FE87083FF46C084E0911101C083E0EE
:1021D000EF2DE81B8F1508F0E0E0D6018E2F20E2EE
:1021E000552351F1992329F0D6019C93C6010196FC
:1021F0006C0196012D5F3F4FE2FE24C08EE4D601B4
:102200008C9391E411969C93119712968C93D9011B
:102210008E2F90E281111BC0E20FF32FF11D10826F
:102220008EEF9FEF2996ECE00C9446149DE2C6CF0A
:1022300090E2C4CF2D9381508111FCCFCE0ED11CE2
:10224000E0E0D0CF8EE6D6018C9391E6DBCF9D9374
:102250008150E0CF482F447082FF3DC084E091114F
:1022600001C083E08F1510F4EF2DE81BD6018E2FEF
:1022700020E2552309F1992329F0D6019C93C60148
:1022800001966C0196012D5F3F4FE2FE1BC089E471
:10229000D6018C938EE411968C93119786E4129656
:1022A0008C93D9018E2F90E2882309F4B5CF9D93AA
:1022B0008150FACF2D9381508111FCCFCE0ED11CCD
:1022C000E0E0D9CF89E6D6018C938EE611968C9307
:1022D000119786E6E4CF9B0177FF02C030E020E053
:1022E000A1E0B0E0911102C0B0E0A0E0F9013196A8
:1022F000AE0FBF1F8B2C912CBB2009F461C0540181
:10230000EFEFAE1ABE0AAA0DBB1DFA161B0619F096
:1023100014F04F2D4A1B511188C0E3FC59C07601BF
:10232000A42FB0E2A1114FC0C40ED11C992309F40F
:102330005BC040E0D6011196F60190836D015523F4
:1023400009F448C0012F060F9A81582F507184FF5D
:1023500003C0913309F4015010160CF047C0093046
:1023600008F008E0EEE2FE2E5B01A01AB10885013C
:102370009194819491082F3F320729F4D601FC9261
:10238000F60131966F016217730794F10217130774
:102390007CF5DB01A21BB30BAA24A394B12CAC0ED9
:1023A000BD1EAA0DBB1D11968C9121503109D6017D
:1023B000119628153905F4F0F60180836D01DBCF05
:1023C000B12CA12CA0CFF701B1937F01A150AACFCE
:1023D0009111B0CFD601942F50E302C05D9391507C
:1023E0009111FCCFC40ED11C40E0ACCF01E0BACFBC
:1023F00080E3DBCF6217730731F4963388F49533AB
:1024000011F4552369F0F6018083FD01842F90E2D9
:10241000811108C0A40FB11D1C9290E080E002CF92
:1024200081E3F1CF91938150F3CF911183CF8ACF84
:10243000283008F027E03327DA01990F311D87FD96
:10244000916000966105710539F432602E5F3D930D
:1024500030E32A95E1F708959F3F30F08038710509
:10246000610509F03C5F3C5F3D93913008F0806866
:10247000911DDF93CF931F930F93FF92EF92192F2C
:10248000987F9695E92F96959695E90FFF27EE533D
:10249000FF4F99273327EE24FF24A701E70105907A
:1024A0000894079428F4360FE71EF81E491F511DA3
:1024B000660F771F881F991F0694A1F70590079450
:1024C00028F4E70EF81E491F561FC11D770F881FFD
:1024D000991F661F0694A1F70590079428F4F80E3B
:1024E000491F561FC71FD11D880F991F661F771FD1
:1024F0000694A1F70590079420F4490F561FC71FB3
:10250000D81F990F661F771F881F0694A9F784911B
:102510001095177041F0D695C79557954795F79444
:10252000E7941A95C1F7E8E6F0E0689415901591E4
:1025300035916591959105907FE27395E118F10AC7
:10254000430B560BC90BD009C0F7E10CF11E431F1A
:10255000561FC91FD01D7EF4703311F48A95E6CF43
:10256000E894015030F0080F0AF40027021708F42D
:10257000202F2395022F7A3328F079E37D932A9533
:10258000E9F710C07D932A9589F60694979567958B
:10259000379517951794E118F10A430B560BC90BA1
:1025A000D00998F023957E9173957A3308F070E303
:1025B0007C932013B8F77E9170617D9330F0839502
:1025C00071E37D9370E32A95E1F71124EF90FF907A
:1025D0000F911F91CF91DF91992787FD90950895D5
:1025E000DC01FC01672F71917723E1F7329704C07A
:1025F0007C916D9370836291AE17BF07C8F3089505
:102600000E94421308F481E00895E89409C097FB02
:102610003EF490958095709561957F4F8F4F9F4FB9
:102620009923A9F0F92F96E9BB279395F6958795FD
:1026300077956795B795F111F8CFFAF4BB0F11F4C0
:1026400060FF1BC06F5F7F4F8F4F9F4F16C0882367
:1026500011F096E911C0772321F09EE8872F762F9D
:1026600005C0662371F096E8862F70E060E02AF0DE
:102670009A95660F771F881FDAF7880F96958795CA
:1026800097F90895990F0008550FAA0BE0E8FEEF9F
:1026900016161706E807F907C0F012161306E40726
:1026A000F50798F0621B730B840B950B39F40A261F
:1026B00061F0232B242B252B21F408950A2609F4FD
:1026C000A140A6958FEF811D811D08950E94791369
:1026D0000C94EA130E94DC1338F00E94E31320F0FC
:1026E000952311F00C94D3130C94D91311240C944A
:1026F0001E140E94FB1370F3959FC1F3950F50E0D9
:10270000551F629FF001729FBB27F00DB11D639FA3
:10271000AA27F00DB11DAA1F649F6627B00DA11D49
:10272000661F829F2227B00DA11D621F739FB00DEF
:10273000A11D621F839FA00D611D221F749F33275F
:10274000A00D611D231F849F600D211D822F762FF8
:102750006A2F11249F5750409AF0F1F088234AF0D5
:10276000EE0FFF1FBB1F661F771F881F9150504041
:10277000A9F79E3F510580F00C94D3130C941E14BE
:102780005F3FE4F3983ED4F3869577956795B795C8
:10279000F795E7959F5FC1F7FE2B880F911D9695E2
:1027A000879597F9089597F99F6780E870E060E052
:1027B00008959FEF80EC089500240A9416161706DA
:1027C00018060906089500240A9412161306140622
:1027D00005060895092E0394000C11F4882352F085
:1027E000BB0F40F4BF2B11F460FF04C06F5F7F4F3D
:1027F0008F4F9F4F089557FD9058440F551F59F024
:102800005F3F71F04795880F97FB991F61F09F3FDD
:1028100079F087950895121613061406551FF2CF06
:102820004695F1DF08C0161617061806991FF1CF56
:1028300086957105610508940895E894BB2766277D
:102840007727CB0197F908952F923F924F925F928D
:102850006F927F928F929F92AF92BF92CF92DF92B0
:10286000EF92FF920F931F93CF93DF93CDB7DEB715
:10287000CA1BDB0B0FB6F894DEBF0FBECDBF0994A9
:102880002A88398848885F846E847D848C849B8400
:10289000AA84B984C884DF80EE80FD800C811B810E
:1028A000AA81B981CE0FD11D0FB6F894DEBF0FBE3D
:1028B000CDBFED0108955058BB27AA270E9473147D
:1028C0000C94EA130E94DC1338F00E94E31320F00A
:1028D00039F49F3F19F426F40C94D9130EF4E095C3
:1028E000E7FB0C94D313E92F0E94FB1358F3BA179C
:1028F000620773078407950720F079F4A6F50C9416
:102900001D140EF4E0950B2EBA2FA02D0B01B9016A
:1029100090010C01CA01A0011124FF27591B99F055
:10292000593F50F4503E68F11A16F040A22F232F61
:10293000342F4427585FF3CF469537952795A795B1
:10294000F0405395C9F77EF41F16BA0B620B730B58
:10295000840BBAF09150A1F0FF0FBB1F661F771FC9
:10296000881FC2F70EC0BA0F621F731F841F48F47E
:10297000879577956795B795F7959E3F08F0B0CF07
:102980009395880F08F09927EE0F979587950895EE
:102990000E94DC140C94EA130E94E31358F00E9486
:1029A000DC1340F029F45F3F29F00C94D31351114C
:1029B0000C941E140C94D9130E94FB1368F39923F2
:1029C000B1F3552391F3951B550BBB27AA2762172B
:1029D0007307840738F09F5F5F4F220F331F441F38
:1029E000AA1FA9F335D00E2E3AF0E0E832D091506C
:1029F0005040E695001CCAF72BD0FE2F29D0660F59
:102A0000771F881FBB1F261737074807AB07B0E89B
:102A100009F0BB0B802DBF01FF2793585F4F3AF0A1
:102A20009E3F510578F00C94D3130C941E145F3F15
:102A3000E4F3983ED4F3869577956795B795F79527
:102A40009F5FC9F7880F911D9695879597F908950F
:102A5000E1E0660F771F881FBB1F621773078407AB
:102A6000BA0720F0621B730B840BBA0BEE1F88F7BA
:102A7000E09508950E94031488F09F5798F0B92FAD
:102A80009927B751B0F0E1F0660F771F881F991FA3
:102A90001AF0BA95C9F714C0B13091F00E941D1414
:102AA000B1E008950C941D14672F782F8827B85F24
:102AB00039F0B93FCCF3869577956795B395D9F7FB
:102AC0003EF490958095709561957F4F8F4F9F4F05
:102AD00008950E94421308F48FEF08950E94421354
:102AE000880B990B0895A1E21A2EAA1BBB1BFD01AE
:102AF0000DC0AA1FBB1FEE1FFF1FA217B307E407DD
:102B0000F50720F0A21BB30BE40BF50B661F771F34
:102B1000881F991F1A9469F7609570958095909514
:102B20009B01AC01BD01CF010895EE0FFF1F059081
:102B3000F491E02D09940F931F93CF93DF9382308C
:102B4000910510F482E090E0E091A103F091A203DE
:102B500030E020E0B0E0A0E0309799F42115310595
:102B600009F44AC0281B390B24303105D8F58A8175
:102B70009B816115710589F1FB0193838283FE01BD
:102B800011C0408151810281138148175907E0F03B
:102B90004817590799F4109761F012960C93129701
:102BA00013961C933296CF01DF91CF911F910F9115
:102BB00008950093A1031093A203F4CF21153105CA
:102BC00051F04217530738F0A901DB019A01BD010A
:102BD000DF01F801C1CFEF01F9CF9093A2038093F9
:102BE000A103CDCFFE01E20FF31F819391932250F9
:102BF000310939832883D7CF20919F033091A003D7
:102C0000232B41F420910201309103013093A00362
:102C100020939F032091000130910101211531057E
:102C200041F42DB73EB74091040150910501241B9A
:102C3000350BE0919F03F091A003E217F307A0F496
:102C40002E1B3F0B2817390778F0AC014E5F5F4F02
:102C50002417350748F04E0F5F1F5093A003409391
:102C60009F03819391939FCFF0E0E0E09CCFCF93BF
:102C7000DF930097E9F0FC01329713821282A09152
:102C8000A103B091A203ED0130E020E01097A1F480
:102C900020813181820F931F20919F033091A003E7
:102CA0002817390709F061C0F093A003E0939F0350
:102CB000DF91CF910895EA01CE17DF07E8F54A8149
:102CC0005B819E0141155105B1F7E901FB83EA8360
:102CD00049915991C40FD51FEC17FD0761F480810C
:102CE00091810296840F951FE901998388838281DF
:102CF00093819B838A83F0E0E0E012968D919C9112
:102D000013970097B9F52D913C911197CD0102963B
:102D1000820F931F20919F033091A003281739073A
:102D200039F6309751F51092A2031092A103B09397
:102D3000A003A0939F03BCCFD383C2834081518162
:102D4000840F951FC817D90761F44E5F5F4F8881C4
:102D50009981480F591F518340838A819B819383B6
:102D600082832115310509F0B0CFF093A203E093DF
:102D7000A1039ECFFD01DC01C0CF13821282D7CF09
:102D8000B0E0A0E0E6ECF6E10C9426148C0100978C
:102D900051F4CB010E949B158C01C801CDB7DEB761
:102DA000E0E10C944214FC01E60FF71F9C01225055
:102DB0003109E217F30708F49DC0D901CD91DC91E8
:102DC0001197C617D70798F0C530D10530F3CE015B
:102DD00004978617970708F3C61BD70B2297C19352
:102DE000D1936D937C93CF010E943716D6CF5B01B0
:102DF000AC1ABD0A4C018C0E9D1EA091A103B0918E
:102E0000A203512C412CF12CE12C109731F580912B
:102E10009F039091A0038815990509F05CC04616A0
:102E2000570608F058C08091000190910101009769
:102E300041F48DB79EB74091040150910501841B68
:102E4000950BE817F90708F055C0F093A003E0933D
:102E50009F03F90171836083A0CF8D919C9111979D
:102E600012966C90129713967C901397A815B9053B
:102E700059F56C0142E0C40ED11CCA14DB0420F1E8
:102E8000AC014A195B09DA011296159780F062824B
:102E9000738251834083D9016D937C93E114F104D3
:102EA00071F0D7011396FC93EE93129776CF22968A
:102EB0008C0F9D1FF90191838083F301EFCFF09375
:102EC000A203E093A10369CF4816590608F42C0128
:102ED0007D01D3019ACFCB010E949B157C01009705
:102EE00049F0AE01B8010E947D17C8010E94371653
:102EF000870153CF10E000E050CFFB01DC0102C09E
:102F000001900D9241505040D8F70895FB01DC012B
:102F100001900D920020E1F70895FB01DC01415082
:102F2000504048F001900D920020C9F701C01D9259
:0C2F300041505040E0F70895F894FFCFA6
:102F3C000000A303800000000000CC012C0159010B
:102F4C001E028A0168017C0100000000A2045A04E0
:102F5C00D204370423014704380400000000720730
:102F6C002C01D204D1040D0A006E616E00696E66EC
:102F7C00006F766600424D503138302053746172C8
:102F8C007465643A00424D503138302069732050DA
:102F9C0072656173737572650073656E736F722001
:102FAC00696E636C7564696E67006850612C20549F
:102FBC00656D702C20616C74697475646500416C6E
:102FCC007469747564653A20004100206D005400EA
:102FDC0054656D70657261747572653A200020439A
:102FEC00200050004162732E2050723A2000206D58
:102FFC00620053005365616C766C2050723A20006D
:00000001FF
